:100000000C9434000C9449000C9449000C94490061
:100010000C9449000C9449000C9449000C9449003C
:100020000C9449000C9449000C9449000C9449002C
:100030000C9449000C9449000C9449000C9449001C
:100040000C9449000C9449000C9449000C9449000C
:100050000C9449000C9449000C9449000C944900FC
:100060000C9449000C94490011241FBECFEFD8E036
:10007000DEBFCDBF13E0A0E0B1E0E2E5FEE402C0E8
:1000800005900D92A230B107D9F70E9418270C9461
:1000900027270C940000EF92FF920F931F93CF93AA
:1000A000DF937B01EC018C01040F151F0C171D075A
:1000B00038F04FEFB701CE010E94E1012196F6CF53
:1000C000DF91CF911F910F91FF90EF900895EF92E4
:1000D000FF920F931F93CF93DF937C01EB018B0172
:1000E000040F151FC017D10738F44FEFBE01C70129
:1000F0000E94E1012196F6CFDF91CF911F910F91E0
:10010000FF90EF900895CF92DF92EF92FF920F93BE
:100110001F93CF93DF936C01EB018A01015011090A
:10012000790181E0E81AF108A801C6010E944B009C
:10013000A701BE01C6010E946700A701BE01C80158
:100140008C0D9D1D0E946700B7016C0F7D1FA801DB
:10015000C601DF91CF911F910F91FF90EF90DF903B
:10016000CF900C944B007F928F929F92AF92BF9250
:10017000CF92DF92EF92FF920F931F93CF93DF9373
:1001800040524F35B8F54B01EC0185E0489FA00186
:100190001124FA01E050FF4F6F0185E0782EC05026
:1001A000D140C41BD50B5E01AC0CBD1C8401E12CFD
:1001B000F12CF601808190E00E2C02C09595879578
:1001C0000A94E2F780FF02C04FEF01C040E0B8019F
:1001D000C5010E94E101FFEFEF1AFF0A0F5F1F4FF9
:1001E00087E0E816F10429F77A949FEFC91AD90A33
:1001F0007110D9CFDF91CF911F910F91FF90EF90A8
:10020000DF90CF90BF90AF909F908F907F90089598
:10021000CF92DF92EF92FF920F931F93CF93DF93D2
:10022000F82EE92E8B016A01C82FD92FF6014191D2
:100230006F014423B9F04A3029F4085F1F4FCF2DD6
:10024000DE2DF4CFB801CE010E94B300CE010B9693
:100250008138910510F42696E9CF085F1F4FCF2D06
:10026000DE2DE4CFDF91CF911F910F91FF90EF90A2
:10027000DF90CF900895009741F0EFE9FFE03197CC
:10028000F1F700C000000197F6CF08952A9800000A
:10029000000000002A9A000000000000089580E19C
:1002A0008A95F1F7089590E19A95F1F72A9829989F
:1002B000289A00000000000000000000000000007C
:1002C000000000008F7088B92A9A0000000000002A
:1002D000000000000000000000000000299828989D
:1002E00068B90000000000000000000000000E944B
:1002F000460100000000000000000000000008951A
:100300008FEF87B984B18F6184B929982A982C9886
:100310002FEF81EE94E0215080409040E1F700C043
:1003200000002C9A2FEF81EE94E021508040904005
:10033000E1F700C00000289862E380E00E945301CA
:1003400067E081E00E9453016FE082E00E94530168
:100350006FE783E00E94530160E088E00E94530150
:1003600060E089E00E94530160E08AE00E9453014E
:1003700060E08BE00C945301CF93DF937695762F5A
:10038000662777956795860F971FEC0133E0D69522
:10039000C7953A95E1F76C2F8AE00E9453016D2FC3
:1003A0008BE0DF91CF910C945301682F8CE00C947B
:1003B0005301CF93C42F0E94BC018C2FCF910C947A
:1003C000D501CF93DF93C82FD42F0E94BC016C2F8F
:1003D0006770DF3F11F48FE001C08EE0DF91CF91B5
:1003E0000C9453014FEF62E070E089E790E00E94C7
:1003F000E1014FEF62E070E08AE790E00E94E101E6
:100400004FEF62E070E08BE790E00E94E1014FEF78
:1004100062E070E08CE790E00E94E1014FEF62E063
:1004200070E08DE790E00E94E1014FEF62E070E044
:100430008EE790E00E94E1014FEF63E070E086E715
:1004400090E00E94E1014FEF63E070E087E790E009
:100450000E94E1014FEF63E070E088E790E00E94C6
:10046000E1014FEF63E070E089E790E00E94E10175
:100470004FEF63E070E08AE790E00E94E1014FEF08
:1004800063E070E08BE790E00E94E1014FEF63E0F2
:1004900070E08CE790E00E94E1014FEF63E070E0D4
:1004A0008DE790E00E94E1014FEF63E070E08EE79E
:1004B00090E00E94E1014FEF63E070E08FE790E091
:1004C0000E94E1014FEF63E070E080E890E00E945D
:1004D000E1014FEF63E070E081E890E00E94E1010C
:1004E0004FEF64E070E084E790E00E94E1014FEF9D
:1004F00064E070E085E790E00E94E1014FEF64E086
:1005000070E086E790E00E94E1014FEF64E070E068
:1005100087E790E00E94E1014FEF64E070E088E738
:1005200090E00E94E1014FEF64E070E089E790E025
:100530000E94E1014FEF64E070E08AE790E00E94E2
:10054000E1014FEF64E070E08BE790E00E94E10191
:100550004FEF64E070E08CE790E00E94E1014FEF24
:1005600064E070E08DE790E00E94E1014FEF64E00D
:1005700070E08EE790E00E94E1014FEF64E070E0F0
:100580008FE790E00E94E1014FEF64E070E080E8C7
:1005900090E00E94E1014FEF64E070E081E890E0BC
:1005A0000E94E1014FEF64E070E082E890E00E9479
:1005B000E1014FEF64E070E083E890E00E94E10128
:1005C0004FEF65E070E083E790E00E94E1014FEFBC
:1005D00065E070E084E790E00E94E1014FEF65E0A4
:1005E00070E085E790E00E94E1014FEF65E070E088
:1005F00086E790E00E94E1014FEF65E070E087E759
:1006000090E00E94E1014FEF65E070E088E790E044
:100610000E94E1014FEF65E070E089E790E00E9401
:10062000E1014FEF65E070E08AE790E00E94E101B0
:100630004FEF65E070E08BE790E00E94E1014FEF43
:1006400065E070E08CE790E00E94E1014FEF65E02B
:1006500070E08DE790E00E94E1014FEF65E070E00F
:100660008EE790E00E94E1014FEF65E070E08FE7D8
:1006700090E00E94E1014FEF65E070E080E890E0DB
:100680000E94E1014FEF65E070E081E890E00E9498
:10069000E1014FEF65E070E082E890E00E94E10147
:1006A0004FEF65E070E083E890E00E94E1014FEFDA
:1006B00065E070E084E890E00E94E1014FEF66E0C1
:1006C00070E083E790E00E94E1014FEF66E070E0A8
:1006D00084E790E00E94E1014FEF66E070E085E77B
:1006E00090E00E94E1014FEF66E070E086E790E065
:1006F0000E94E1014FEF66E070E087E790E00E9422
:10070000E1014FEF66E070E088E790E00E94E101D0
:100710004FEF66E070E089E790E00E94E1014FEF63
:1007200066E070E08AE790E00E94E1014FEF66E04A
:1007300070E08BE790E00E94E1014FEF66E070E02F
:100740008CE790E00E94E1014FEF66E070E08DE7FA
:1007500090E00E94E1014FEF66E070E08EE790E0EC
:100760000E94E1014FEF66E070E08FE790E00E94A9
:10077000E1014FEF66E070E080E890E00E94E10167
:100780004FEF66E070E081E890E00E94E1014FEFFA
:1007900066E070E082E890E00E94E1014FEF66E0E1
:1007A00070E083E890E00E94E1014FEF66E070E0C6
:1007B00084E890E00E94E1014FEF66E070E085E898
:1007C00090E00E94E1014FEF67E070E082E790E087
:1007D0000E94E1014FEF67E070E083E790E00E9444
:1007E000E1014FEF67E070E084E790E00E94E101F3
:1007F0004FEF67E070E085E790E00E94E1014FEF86
:1008000067E070E086E790E00E94E1014FEF67E06B
:1008100070E087E790E00E94E1014FEF67E070E051
:1008200088E790E00E94E1014FEF67E070E089E720
:1008300090E00E94E1014FEF67E070E08AE790E00E
:100840000E94E1014FEF67E070E08BE790E00E94CB
:10085000E1014FEF67E070E08CE790E00E94E1017A
:100860004FEF67E070E08DE790E00E94E1014FEF0D
:1008700067E070E08EE790E00E94E1014FEF67E0F3
:1008800070E08FE790E00E94E1014FEF67E070E0D9
:1008900080E890E00E94E1014FEF67E070E082E8BD
:1008A00090E00E94E1014FEF67E070E083E890E0A4
:1008B0000E94E1014FEF67E070E084E890E00E9461
:1008C000E1014FEF67E070E085E890E00E94E10110
:1008D0004FEF67E070E086E890E00E94E1014FEFA3
:1008E00068E070E082E790E00E94E1014FEF68E08D
:1008F00070E083E790E00E94E1014FEF68E070E074
:1009000084E790E00E94E1014FEF68E070E085E746
:1009100090E00E94E1014FEF68E070E086E790E030
:100920000E94E1014FEF68E070E087E790E00E94ED
:10093000E1014FEF68E070E088E790E00E94E1019C
:100940004FEF68E070E089E790E00E94E1014FEF2F
:1009500068E070E08AE790E00E94E1014FEF68E014
:1009600070E08BE790E00E94E1014FEF68E070E0FB
:100970008CE790E00E94E1014FEF68E070E08DE7C6
:1009800090E00E94E1014FEF68E070E08EE790E0B8
:100990000E94E1014FEF68E070E08FE790E00E9475
:1009A000E1014FEF68E070E081E890E00E94E10132
:1009B0004FEF68E070E082E890E00E94E1014FEFC5
:1009C00068E070E083E890E00E94E1014FEF68E0AA
:1009D00070E084E890E00E94E1014FEF68E070E091
:1009E00085E890E00E94E1014FEF68E070E086E862
:1009F00090E00E94E1014FEF69E070E082E790E053
:100A00000E94E1014FEF69E070E083E790E00E940F
:100A1000E1014FEF69E070E084E790E00E94E101BE
:100A20004FEF69E070E085E790E00E94E1014FEF51
:100A300069E070E086E790E00E94E1014FEF69E035
:100A400070E087E790E00E94E1014FEF69E070E01D
:100A500088E790E00E94E1014FEF69E070E089E7EC
:100A600090E00E94E1014FEF69E070E08AE790E0DA
:100A70000E94E1014FEF69E070E08BE790E00E9497
:100A8000E1014FEF69E070E08CE790E00E94E10146
:100A90004FEF69E070E08DE790E00E94E1014FEFD9
:100AA00069E070E08EE790E00E94E1014FEF69E0BD
:100AB00070E08FE790E00E94E1014FEF69E070E0A5
:100AC00080E890E00E94E1014FEF69E070E081E88A
:100AD00090E00E94E1014FEF69E070E082E890E071
:100AE0000E94E1014FEF69E070E083E890E00E942E
:100AF000E1014FEF69E070E084E890E00E94E101DD
:100B00004FEF69E070E085E890E00E94E1014FEF6F
:100B100069E070E086E890E00E94E1014FEF6AE052
:100B200070E081E790E00E94E1014FEF6AE070E041
:100B300082E790E00E94E1014FEF6AE070E083E716
:100B400090E00E94E1014FEF6AE070E084E790E0FE
:100B50000E94E1014FEF6AE070E085E790E00E94BB
:100B6000E1014FEF6AE070E086E790E00E94E1016A
:100B70004FEF6AE070E087E790E00E94E1014FEFFD
:100B80006AE070E088E790E00E94E1014FEF6AE0E0
:100B900070E089E790E00E94E1014FEF6AE070E0C9
:100BA0008AE790E00E94E1014FEF6AE070E08BE796
:100BB00090E00E94E1014FEF6AE070E08CE790E086
:100BC0000E94E1014FEF6AE070E08DE790E00E9443
:100BD000E1014FEF6AE070E08EE790E00E94E101F2
:100BE0004FEF6AE070E08FE790E00E94E1014FEF85
:100BF0006AE070E080E890E00E94E1014FEF6AE077
:100C000070E081E890E00E94E1014FEF6AE070E05F
:100C100082E890E00E94E1014FEF6AE070E083E833
:100C200090E00E94E1014FEF6AE070E084E890E01C
:100C30000E94E1014FEF6AE070E085E890E00E94D9
:100C4000E1014FEF6AE070E086E890E00E94E10188
:100C50004FEF6AE070E087E890E00E94E1014FEF1B
:100C60006BE070E081E790E00E94E1014FEF6BE004
:100C700070E082E790E00E94E1014FEF6BE070E0EE
:100C800083E790E00E94E1014FEF6BE070E084E7C2
:100C900090E00E94E1014FEF6BE070E085E790E0AB
:100CA0000E94E1014FEF6BE070E086E790E00E9468
:100CB000E1014FEF6BE070E087E790E00E94E10117
:100CC0004FEF6BE070E088E790E00E94E1014FEFAA
:100CD0006BE070E089E790E00E94E1014FEF6BE08C
:100CE00070E08AE790E00E94E1014FEF6BE070E076
:100CF0008BE790E00E94E1014FEF6BE070E08CE742
:100D000090E00E94E1014FEF6BE070E08DE790E032
:100D10000E94E1014FEF6BE070E08EE790E00E94EF
:100D2000E1014FEF6BE070E08FE790E00E94E1019E
:100D30004FEF6BE070E080E890E00E94E1014FEF40
:100D40006BE070E081E890E00E94E1014FEF6BE022
:100D500070E082E890E00E94E1014FEF6BE070E00C
:100D600083E890E00E94E1014FEF6BE070E084E8DF
:100D700090E00E94E1014FEF6BE070E085E890E0C9
:100D80000E94E1014FEF6BE070E086E890E00E9486
:100D9000E1014FEF6BE070E087E890E00E94E10135
:100DA0004FEF6CE070E081E790E00E94E1014FEFCF
:100DB0006CE070E082E790E00E94E1014FEF6CE0B0
:100DC00070E083E790E00E94E1014FEF6CE070E09B
:100DD00084E790E00E94E1014FEF6CE070E085E76E
:100DE00090E00E94E1014FEF6CE070E086E790E058
:100DF0000E94E1014FEF6CE070E087E790E00E9415
:100E0000E1014FEF6CE070E088E790E00E94E101C3
:100E10004FEF6CE070E089E790E00E94E1014FEF56
:100E20006CE070E08AE790E00E94E1014FEF6CE037
:100E300070E08BE790E00E94E1014FEF6CE070E022
:100E40008CE790E00E94E1014FEF6CE070E08DE7ED
:100E500090E00E94E1014FEF6CE070E08EE790E0DF
:100E60000E94E1014FEF6CE070E08FE790E00E949C
:100E7000E1014FEF6CE070E080E890E00E94E1015A
:100E80004FEF6CE070E081E890E00E94E1014FEFED
:100E90006CE070E082E890E00E94E1014FEF6CE0CE
:100EA00070E083E890E00E94E1014FEF6CE070E0B9
:100EB00084E890E00E94E1014FEF6CE070E085E88B
:100EC00090E00E94E1014FEF6CE070E086E890E076
:100ED0000E94E1014FEF6CE070E087E890E00E9433
:100EE000E1014FEF6DE070E081E790E00E94E101E9
:100EF0004FEF6DE070E082E790E00E94E1014FEF7C
:100F00006DE070E083E790E00E94E1014FEF6DE05B
:100F100070E084E790E00E94E1014FEF6DE070E047
:100F200085E790E00E94E1014FEF6DE070E086E719
:100F300090E00E94E1014FEF6DE070E087E790E004
:100F40000E94E1014FEF6DE070E088E790E00E94C1
:100F5000E1014FEF6DE070E089E790E00E94E10170
:100F60004FEF6DE070E08AE790E00E94E1014FEF03
:100F70006DE070E08BE790E00E94E1014FEF6DE0E3
:100F800070E08CE790E00E94E1014FEF6DE070E0CF
:100F90008DE790E00E94E1014FEF6DE070E080E8A6
:100FA00090E00E94E1014FEF6DE070E081E890E099
:100FB0000E94E1014FEF6DE070E082E890E00E9456
:100FC000E1014FEF6DE070E083E890E00E94E10105
:100FD0004FEF6DE070E084E890E00E94E1014FEF98
:100FE0006DE070E085E890E00E94E1014FEF6DE078
:100FF00070E086E890E00E94E1014FEF6DE070E064
:1010000087E890E00E94E1014FEF6EE070E081E739
:1010100090E00E94E1014FEF6EE070E082E790E027
:101020000E94E1014FEF6EE070E083E790E00E94E4
:10103000E1014FEF6EE070E087E790E00E94E10190
:101040004FEF6EE070E088E790E00E94E1014FEF23
:101050006EE070E089E790E00E94E1014FEF6EE002
:1010600070E08AE790E00E94E1014FEF6EE070E0EF
:101070008BE790E00E94E1014FEF6EE070E08CE7BB
:1010800090E00E94E1014FEF6EE070E082E890E0B6
:101090000E94E1014FEF6EE070E083E890E00E9473
:1010A000E1014FEF6EE070E084E890E00E94E10122
:1010B0004FEF6EE070E085E890E00E94E1014FEFB5
:1010C0006EE070E086E890E00E94E1014FEF6EE094
:1010D00070E087E890E00E94E1014FEF6FE070E080
:1010E00081E790E00E94E1014FEF6FE070E082E75E
:1010F00090E00E94E1014FEF6FE070E083E790E045
:101100000E94E1014FEF6FE070E085E790E00E9400
:10111000E1014FEF6FE070E088E790E00E94E101AD
:101120004FEF6FE070E089E790E00E94E1014FEF40
:101130006FE070E08AE790E00E94E1014FEF6FE01E
:1011400070E08BE790E00E94E1014FEF6FE070E00C
:101150008EE790E00E94E1014FEF6FE070E08FE7D3
:1011600090E00E94E1014FEF6FE070E082E890E0D4
:101170000E94E1014FEF6FE070E083E890E00E9491
:10118000E1014FEF6FE070E084E890E00E94E10140
:101190004FEF6FE070E085E890E00E94E1014FEFD3
:1011A0006FE070E086E890E00E94E1014FEF6FE0B1
:1011B00070E087E890E00E94E1014FEF60E170E0AD
:1011C00081E790E00E94E1014FEF60E170E082E78B
:1011D00090E00E94E1014FEF60E170E083E790E072
:1011E0000E94E1014FEF60E170E084E790E00E942F
:1011F000E1014FEF60E170E085E790E00E94E101DE
:101200004FEF60E170E086E790E00E94E1014FEF70
:1012100060E170E088E790E00E94E1014FEF60E15B
:1012200070E089E790E00E94E1014FEF60E170E03B
:101230008AE790E00E94E1014FEF60E170E08BE708
:1012400090E00E94E1014FEF60E170E08DE790E0F7
:101250000E94E1014FEF60E170E08EE790E00E94B4
:10126000E1014FEF60E170E08FE790E00E94E10163
:101270004FEF60E170E080E890E00E94E1014FEF05
:1012800060E170E082E890E00E94E1014FEF60E1F0
:1012900070E083E890E00E94E1014FEF60E170E0D0
:1012A00084E890E00E94E1014FEF60E170E085E8A2
:1012B00090E00E94E1014FEF60E170E086E890E08D
:1012C0000E94E1014FEF60E170E087E890E00E944A
:1012D000E1014FEF61E170E081E790E00E94E10100
:1012E0004FEF61E170E082E790E00E94E1014FEF93
:1012F00061E170E083E790E00E94E1014FEF61E17E
:1013000070E084E790E00E94E1014FEF61E170E05E
:1013100085E790E00E94E1014FEF61E170E086E730
:1013200090E00E94E1014FEF61E170E088E790E01A
:101330000E94E1014FEF61E170E089E790E00E94D7
:10134000E1014FEF61E170E08AE790E00E94E10186
:101350004FEF61E170E08BE790E00E94E1014FEF19
:1013600061E170E08DE790E00E94E1014FEF61E103
:1013700070E08EE790E00E94E1014FEF61E170E0E4
:101380008FE790E00E94E1014FEF61E170E080E8BB
:1013900090E00E94E1014FEF61E170E081E890E0B0
:1013A0000E94E1014FEF61E170E083E890E00E946C
:1013B000E1014FEF61E170E084E890E00E94E1011B
:1013C0004FEF61E170E085E890E00E94E1014FEFAE
:1013D00061E170E086E890E00E94E1014FEF61E199
:1013E00070E087E890E00E94E1014FEF61E170E07A
:1013F00088E890E00E94E1014FEF62E170E081E750
:1014000090E00E94E1014FEF62E170E082E790E03E
:101410000E94E1014FEF62E170E083E790E00E94FB
:10142000E1014FEF62E170E084E790E00E94E101AA
:101430004FEF62E170E085E790E00E94E1014FEF3D
:1014400062E170E086E790E00E94E1014FEF62E127
:1014500070E088E790E00E94E1014FEF62E170E008
:1014600089E790E00E94E1014FEF62E170E08AE7D6
:1014700090E00E94E1014FEF62E170E08BE790E0C5
:101480000E94E1014FEF62E170E08DE790E00E9481
:10149000E1014FEF62E170E08EE790E00E94E10130
:1014A0004FEF62E170E08FE790E00E94E1014FEFC3
:1014B00062E170E080E890E00E94E1014FEF62E1BC
:1014C00070E083E890E00E94E1014FEF62E170E09C
:1014D00084E890E00E94E1014FEF62E170E085E86E
:1014E00090E00E94E1014FEF62E170E086E890E059
:1014F0000E94E1014FEF62E170E087E890E00E9416
:10150000E1014FEF62E170E088E890E00E94E101C4
:101510004FEF63E170E081E790E00E94E1014FEF5F
:1015200063E170E082E790E00E94E1014FEF63E148
:1015300070E083E790E00E94E1014FEF63E170E02B
:1015400084E790E00E94E1014FEF63E170E085E7FE
:1015500090E00E94E1014FEF63E170E086E790E0E8
:101560000E94E1014FEF63E170E087E790E00E94A5
:10157000E1014FEF63E170E08AE790E00E94E10152
:101580004FEF63E170E08BE790E00E94E1014FEFE5
:1015900063E170E08DE790E00E94E1014FEF63E1CD
:1015A00070E08EE790E00E94E1014FEF63E170E0B0
:1015B0008FE790E00E94E1014FEF63E170E080E887
:1015C00090E00E94E1014FEF63E170E082E890E07B
:1015D0000E94E1014FEF63E170E083E890E00E9438
:1015E000E1014FEF63E170E084E890E00E94E101E7
:1015F0004FEF63E170E085E890E00E94E1014FEF7A
:1016000063E170E086E890E00E94E1014FEF63E162
:1016100070E087E890E00E94E1014FEF63E170E045
:1016200088E890E00E94E1014FEF64E170E081E71B
:1016300090E00E94E1014FEF64E170E082E790E00A
:101640000E94E1014FEF64E170E083E790E00E94C7
:10165000E1014FEF64E170E084E790E00E94E10176
:101660004FEF64E170E085E790E00E94E1014FEF09
:1016700064E170E087E790E00E94E1014FEF64E1F0
:1016800070E08EE790E00E94E1014FEF64E170E0CE
:101690008FE790E00E94E1014FEF64E170E080E8A5
:1016A00090E00E94E1014FEF64E170E081E890E09A
:1016B0000E94E1014FEF64E170E082E890E00E9457
:1016C000E1014FEF64E170E083E890E00E94E10106
:1016D0004FEF64E170E084E890E00E94E1014FEF99
:1016E00064E170E085E890E00E94E1014FEF64E181
:1016F00070E086E890E00E94E1014FEF64E170E065
:1017000087E890E00E94E1014FEF64E170E088E833
:1017100090E00E94E1014FEF65E170E081E790E029
:101720000E94E1014FEF65E170E082E790E00E94E6
:10173000E1014FEF65E170E083E790E00E94E10195
:101740004FEF65E170E084E790E00E94E1014FEF28
:1017500065E170E081E890E00E94E1014FEF65E112
:1017600070E082E890E00E94E1014FEF65E170E0F7
:1017700083E890E00E94E1014FEF65E170E084E8CA
:1017800090E00E94E1014FEF65E170E085E890E0B4
:101790000E94E1014FEF65E170E086E890E00E9471
:1017A000E1014FEF65E170E087E890E00E94E10120
:1017B0004FEF65E170E088E890E00E94E1014FEFB3
:1017C00066E170E081E790E00E94E1014FEF66E1A1
:1017D00070E082E790E00E94E1014FEF66E170E087
:1017E00083E790E00E94E1014FEF66E170E082E85C
:1017F00090E00E94E1014FEF66E170E083E890E045
:101800000E94E1014FEF66E170E084E890E00E9401
:10181000E1014FEF66E170E085E890E00E94E101B0
:101820004FEF66E170E086E890E00E94E1014FEF43
:1018300066E170E087E890E00E94E1014FEF66E129
:1018400070E088E890E00E94E1014FEF67E170E00E
:1018500081E790E00E94E1014FEF67E170E082E7ED
:1018600090E00E94E1014FEF67E170E083E790E0D4
:101870000E94E1014FEF67E170E080E890E00E9494
:10188000E1014FEF67E170E081E890E00E94E10143
:101890004FEF67E170E083E890E00E94E1014FEFD5
:1018A00067E170E084E890E00E94E1014FEF67E1BA
:1018B00070E085E890E00E94E1014FEF67E170E0A1
:1018C00086E890E00E94E1014FEF67E170E087E871
:1018D00090E00E94E1014FEF67E170E088E890E05E
:1018E0000E94E1014FEF67E170E089E890E00E941B
:1018F000E1014FEF68E170E081E790E00E94E101D3
:101900004FEF68E170E082E790E00E94E1014FEF65
:1019100068E170E083E790E00E94E1014FEF68E149
:1019200070E084E790E00E94E1014FEF68E170E031
:101930008EE790E00E94E1014FEF68E170E08FE7F1
:1019400090E00E94E1014FEF68E170E080E890E0F4
:101950000E94E1014FEF68E170E082E890E00E94B0
:10196000E1014FEF68E170E083E890E00E94E1015F
:101970004FEF68E170E084E890E00E94E1014FEFF2
:1019800068E170E085E890E00E94E1014FEF68E1D6
:1019900070E086E890E00E94E1014FEF68E170E0BE
:1019A00087E890E00E94E1014FEF68E170E088E88D
:1019B00090E00E94E1014FEF68E170E089E890E07B
:1019C0000E94E1014FEF69E170E082E790E00E9440
:1019D000E1014FEF69E170E083E790E00E94E101EF
:1019E0004FEF69E170E084E790E00E94E1014FEF82
:1019F00069E170E085E790E00E94E1014FEF69E165
:101A000070E08BE790E00E94E1014FEF69E170E048
:101A10008CE790E00E94E1014FEF69E170E08DE713
:101A200090E00E94E1014FEF69E170E08EE790E005
:101A30000E94E1014FEF69E170E082E890E00E94CE
:101A4000E1014FEF69E170E083E890E00E94E1017D
:101A50004FEF69E170E084E890E00E94E1014FEF10
:101A600069E170E085E890E00E94E1014FEF69E1F3
:101A700070E086E890E00E94E1014FEF69E170E0DC
:101A800087E890E00E94E1014FEF69E170E088E8AB
:101A900090E00E94E1014FEF69E170E089E890E099
:101AA0000E94E1014FEF6AE170E082E790E00E945E
:101AB000E1014FEF6AE170E083E790E00E94E1010D
:101AC0004FEF6AE170E084E790E00E94E1014FEFA0
:101AD0006AE170E085E790E00E94E1014FEF6AE182
:101AE00070E086E790E00E94E1014FEF6AE170E06C
:101AF00087E790E00E94E1014FEF6AE170E088E73C
:101B000090E00E94E1014FEF6AE170E089E790E028
:101B10000E94E1014FEF6AE170E08AE790E00E94E5
:101B2000E1014FEF6AE170E08BE790E00E94E10194
:101B30004FEF6AE170E08FE790E00E94E1014FEF24
:101B40006AE170E080E890E00E94E1014FEF6AE115
:101B500070E082E890E00E94E1014FEF6AE170E0FE
:101B600083E890E00E94E1014FEF6AE170E084E8D1
:101B700090E00E94E1014FEF6AE170E085E890E0BB
:101B80000E94E1014FEF6AE170E087E890E00E9477
:101B9000E1014FEF6AE170E088E890E00E94E10126
:101BA0004FEF6AE170E089E890E00E94E1014FEFB9
:101BB0006AE170E08AE890E00E94E1014FEF6BE19A
:101BC00070E081E790E00E94E1014FEF6BE170E08F
:101BD00082E790E00E94E1014FEF6BE170E083E764
:101BE00090E00E94E1014FEF6BE170E084E790E04C
:101BF0000E94E1014FEF6BE170E085E790E00E9409
:101C0000E1014FEF6BE170E08DE790E00E94E101B0
:101C10004FEF6BE170E08EE790E00E94E1014FEF43
:101C20006BE170E08FE790E00E94E1014FEF6BE124
:101C300070E082E890E00E94E1014FEF6BE170E01C
:101C400083E890E00E94E1014FEF6BE170E084E8EF
:101C500090E00E94E1014FEF6BE170E085E890E0D9
:101C60000E94E1014FEF6BE170E086E890E00E9496
:101C7000E1014FEF6BE170E088E890E00E94E10144
:101C80004FEF6BE170E089E890E00E94E1014FEFD7
:101C90006BE170E08AE890E00E94E1014FEF6CE1B7
:101CA00070E081E790E00E94E1014FEF6CE170E0AD
:101CB00082E790E00E94E1014FEF6CE170E083E782
:101CC00090E00E94E1014FEF6CE170E084E790E06A
:101CD0000E94E1014FEF6CE170E085E790E00E9427
:101CE000E1014FEF6CE170E086E790E00E94E101D6
:101CF0004FEF6CE170E087E790E00E94E1014FEF69
:101D00006CE170E08AE790E00E94E1014FEF6CE146
:101D100070E08BE790E00E94E1014FEF6CE170E032
:101D20008CE790E00E94E1014FEF6CE170E08DE7FD
:101D300090E00E94E1014FEF6CE170E083E890E0F9
:101D40000E94E1014FEF6CE170E084E890E00E94B6
:101D5000E1014FEF6CE170E085E890E00E94E10165
:101D60004FEF6CE170E086E890E00E94E1014FEFF8
:101D70006CE170E087E890E00E94E1014FEF6CE1D8
:101D800070E088E890E00E94E1014FEF6CE170E0C4
:101D900089E890E00E94E1014FEF6CE170E08AE891
:101DA00090E00E94E1014FEF6CE170E08BE890E081
:101DB0000E94E1014FEF6DE170E080E790E00E944A
:101DC000E1014FEF6DE170E081E790E00E94E101F9
:101DD0004FEF6DE170E082E790E00E94E1014FEF8C
:101DE0006DE170E085E790E00E94E1014FEF6DE169
:101DF00070E086E790E00E94E1014FEF6DE170E056
:101E000087E790E00E94E1014FEF6DE170E088E725
:101E100090E00E94E1014FEF6DE170E089E790E012
:101E20000E94E1014FEF6DE170E08AE790E00E94CF
:101E3000E1014FEF6DE170E08BE790E00E94E1017E
:101E40004FEF6DE170E08CE790E00E94E1014FEF11
:101E50006DE170E083E890E00E94E1014FEF6DE1F9
:101E600070E084E890E00E94E1014FEF6DE170E0E6
:101E700085E890E00E94E1014FEF6DE170E086E8B7
:101E800090E00E94E1014FEF6DE170E087E890E0A3
:101E90000E94E1014FEF6DE170E088E890E00E9460
:101EA000E1014FEF6DE170E089E890E00E94E1010F
:101EB0004FEF6DE170E08AE890E00E94E1014FEFA2
:101EC0006DE170E08BE890E00E94E1014FEF6DE181
:101ED00070E08CE890E00E94E1014FEF6EE170E06D
:101EE00080E790E00E94E1014FEF6EE170E081E752
:101EF00090E00E94E1014FEF6EE170E082E790E038
:101F00000E94E1014FEF6EE170E086E790E00E94F1
:101F1000E1014FEF6EE170E087E790E00E94E101A0
:101F20004FEF6EE170E088E790E00E94E1014FEF33
:101F30006EE170E089E790E00E94E1014FEF6EE111
:101F400070E08AE790E00E94E1014FEF6EE170E0FF
:101F50008BE790E00E94E1014FEF6EE170E084E8D2
:101F600090E00E94E1014FEF6EE170E085E890E0C3
:101F70000E94E1014FEF6EE170E086E890E00E9480
:101F8000E1014FEF6EE170E087E890E00E94E1012F
:101F90004FEF6EE170E088E890E00E94E1014FEFC2
:101FA0006EE170E089E890E00E94E1014FEF6EE1A0
:101FB00070E08AE890E00E94E1014FEF6EE170E08E
:101FC0008BE890E00E94E1014FEF6EE170E08CE859
:101FD00090E00E94E1014FEF6FE170E08FE690E04A
:101FE0000E94E1014FEF6FE170E080E790E00E9416
:101FF000E1014FEF6FE170E081E790E00E94E101C5
:102000004FEF6FE170E087E790E00E94E1014FEF52
:102010006FE170E088E790E00E94E1014FEF6FE12F
:1020200070E089E790E00E94E1014FEF6FE170E01E
:1020300085E890E00E94E1014FEF6FE170E086E8F3
:1020400090E00E94E1014FEF6FE170E087E890E0DF
:102050000E94E1014FEF6FE170E088E890E00E949C
:10206000E1014FEF6FE170E089E890E00E94E1014B
:102070004FEF6FE170E08AE890E00E94E1014FEFDE
:102080006FE170E08BE890E00E94E1014FEF6FE1BB
:1020900070E08CE890E00E94E1014FEF6FE170E0AA
:1020A0008DE890E00E94E1014FEF60E270E08EE683
:1020B00090E00E94E1014FEF60E270E08FE690E077
:1020C0000E94E1014FEF60E270E080E790E00E9443
:1020D000E1014FEF60E270E081E790E00E94E101F2
:1020E0004FEF60E270E085E890E00E94E1014FEF81
:1020F00060E270E086E890E00E94E1014FEF60E26C
:1021000070E087E890E00E94E1014FEF60E270E04C
:1021100088E890E00E94E1014FEF60E270E089E81A
:1021200090E00E94E1014FEF60E270E08AE890E009
:102130000E94E1014FEF60E270E08BE890E00E94C6
:10214000E1014FEF60E270E08CE890E00E94E10175
:102150004FEF60E270E08DE890E00E94E1014FEF08
:1021600061E270E08EE690E00E94E1014FEF61E2F3
:1021700070E08FE690E00E94E1014FEF61E270E0D5
:1021800080E790E00E94E1014FEF61E270E081E7BB
:1021900090E00E94E1014FEF61E270E085E890E09D
:1021A0000E94E1014FEF61E270E086E890E00E945A
:1021B000E1014FEF61E270E087E890E00E94E10109
:1021C0004FEF61E270E088E890E00E94E1014FEF9C
:1021D00061E270E089E890E00E94E1014FEF61E286
:1021E00070E08AE890E00E94E1014FEF61E270E068
:1021F0008BE890E00E94E1014FEF61E270E08CE833
:1022000090E00E94E1014FEF61E270E08DE890E024
:102210000E94E1014FEF61E270E08EE890E00E94E1
:10222000E1014FEF62E270E08DE690E00E94E10193
:102230004FEF62E270E08EE690E00E94E1014FEF26
:1022400062E270E08FE690E00E94E1014FEF62E20F
:1022500070E080E790E00E94E1014FEF62E270E001
:1022600086E890E00E94E1014FEF62E270E087E8CB
:1022700090E00E94E1014FEF62E270E088E890E0B8
:102280000E94E1014FEF62E270E089E890E00E9475
:10229000E1014FEF62E270E08AE890E00E94E10124
:1022A0004FEF62E270E08BE890E00E94E1014FEFB7
:1022B00062E270E08CE890E00E94E1014FEF62E2A0
:1022C00070E08DE890E00E94E1014FEF62E270E083
:1022D0008EE890E00E94E1014FEF62E270E08FE84B
:1022E00090E00E94E1014FEF63E270E08CE690E045
:1022F0000E94E1014FEF63E270E08DE690E00E9402
:10230000E1014FEF63E270E08EE690E00E94E101B0
:102310004FEF63E270E08FE690E00E94E1014FEF43
:1023200063E270E080E790E00E94E1014FEF63E23A
:1023300070E086E890E00E94E1014FEF63E270E018
:1023400087E890E00E94E1014FEF63E270E088E8E7
:1023500090E00E94E1014FEF63E270E089E890E0D5
:102360000E94E1014FEF63E270E08AE890E00E9492
:10237000E1014FEF63E270E08BE890E00E94E10141
:102380004FEF63E270E08CE890E00E94E1014FEFD4
:1023900063E270E08DE890E00E94E1014FEF63E2BC
:1023A00070E08EE890E00E94E1014FEF63E270E0A0
:1023B0008FE890E00E94E1014FEF63E270E080E976
:1023C00090E00E94E1014FEF64E270E08BE690E064
:1023D0000E94E1014FEF64E270E08CE690E00E9421
:1023E000E1014FEF64E270E08DE690E00E94E101D0
:1023F0004FEF64E270E08EE690E00E94E1014FEF63
:1024000064E270E08FE690E00E94E1014FEF64E249
:1024100070E080E790E00E94E1014FEF64E270E03D
:1024200086E890E00E94E1014FEF64E270E087E807
:1024300090E00E94E1014FEF64E270E088E890E0F4
:102440000E94E1014FEF64E270E089E890E00E94B1
:10245000E1014FEF64E270E08AE890E00E94E10160
:102460004FEF64E270E08BE890E00E94E1014FEFF3
:1024700064E270E08CE890E00E94E1014FEF64E2DA
:1024800070E08DE890E00E94E1014FEF64E270E0BF
:102490008EE890E00E94E1014FEF64E270E08FE887
:1024A00090E00E94E1014FEF64E270E080E990E08B
:1024B0000E94E1014FEF65E270E08BE690E00E9440
:1024C000E1014FEF65E270E08CE690E00E94E101EF
:1024D0004FEF65E270E08DE690E00E94E1014FEF82
:1024E00065E270E08EE690E00E94E1014FEF65E268
:1024F00070E08FE690E00E94E1014FEF65E270E04E
:1025000080E790E00E94E1014FEF65E270E087E82C
:1025100090E00E94E1014FEF65E270E088E890E012
:102520000E94E1014FEF65E270E089E890E00E94CF
:10253000E1014FEF65E270E08AE890E00E94E1017E
:102540004FEF65E270E08BE890E00E94E1014FEF11
:1025500065E270E08CE890E00E94E1014FEF65E2F7
:1025600070E08DE890E00E94E1014FEF65E270E0DD
:102570008EE890E00E94E1014FEF65E270E08FE8A5
:1025800090E00E94E1014FEF65E270E080E990E0A9
:102590000E94E1014FEF65E270E081E990E00E9466
:1025A000E1014FEF66E270E08AE690E00E94E1010F
:1025B0004FEF66E270E08BE690E00E94E1014FEFA2
:1025C00066E270E08CE690E00E94E1014FEF66E287
:1025D00070E08DE690E00E94E1014FEF66E270E06E
:1025E0008EE690E00E94E1014FEF66E270E08FE638
:1025F00090E00E94E1014FEF66E270E080E790E03A
:102600000E94E1014FEF66E270E087E890E00E94EF
:10261000E1014FEF66E270E088E890E00E94E1019E
:102620004FEF66E270E089E890E00E94E1014FEF31
:1026300066E270E08AE890E00E94E1014FEF66E216
:1026400070E08BE890E00E94E1014FEF66E270E0FD
:102650008DE890E00E94E1014FEF66E270E08EE8C5
:1026600090E00E94E1014FEF66E270E08FE890E0B9
:102670000E94E1014FEF66E270E080E990E00E9485
:10268000E1014FEF66E270E081E990E00E94E10134
:102690004FEF67E270E08AE690E00E94E1014FEFC1
:1026A00067E270E08BE690E00E94E1014FEF67E2A5
:1026B00070E08CE690E00E94E1014FEF67E270E08D
:1026C0008DE690E00E94E1014FEF67E270E08EE658
:1026D00090E00E94E1014FEF67E270E08FE690E04A
:1026E0000E94E1014FEF67E270E088E890E00E940D
:1026F000E1014FEF67E270E089E890E00E94E101BC
:102700004FEF67E270E08AE890E00E94E1014FEF4E
:1027100067E270E08BE890E00E94E1014FEF67E232
:1027200070E08CE890E00E94E1014FEF67E270E01A
:102730008DE890E00E94E1014FEF67E270E08EE8E3
:1027400090E00E94E1014FEF67E270E08FE890E0D7
:102750000E94E1014FEF67E270E080E990E00E94A3
:10276000E1014FEF67E270E081E990E00E94E10152
:102770004FEF67E270E082E990E00E94E1014FEFE5
:1027800068E270E089E690E00E94E1014FEF68E2C4
:1027900070E08AE690E00E94E1014FEF68E270E0AD
:1027A0008BE690E00E94E1014FEF68E270E08CE67A
:1027B00090E00E94E1014FEF68E270E08DE690E06A
:1027C0000E94E1014FEF68E270E08EE690E00E9427
:1027D000E1014FEF68E270E08FE690E00E94E101D6
:1027E0004FEF68E270E088E890E00E94E1014FEF6F
:1027F00068E270E089E890E00E94E1014FEF68E252
:1028000070E08AE890E00E94E1014FEF68E270E03A
:102810008BE890E00E94E1014FEF68E270E08CE805
:1028200090E00E94E1014FEF68E270E08EE890E0F6
:102830000E94E1014FEF68E270E08FE890E00E94B3
:10284000E1014FEF68E270E080E990E00E94E10171
:102850004FEF68E270E081E990E00E94E1014FEF04
:1028600068E270E082E990E00E94E1014FEF68E2E7
:1028700070E083E990E00E94E1014FEF69E270E0CF
:1028800089E690E00E94E1014FEF69E270E08AE69C
:1028900090E00E94E1014FEF69E270E08BE690E08A
:1028A0000E94E1014FEF69E270E08CE690E00E9447
:1028B000E1014FEF69E270E08DE690E00E94E101F6
:1028C0004FEF69E270E08EE690E00E94E1014FEF89
:1028D00069E270E089E890E00E94E1014FEF69E26F
:1028E00070E08AE890E00E94E1014FEF69E270E059
:1028F0008BE890E00E94E1014FEF69E270E08CE824
:1029000090E00E94E1014FEF69E270E08DE890E015
:102910000E94E1014FEF69E270E08EE890E00E94D2
:10292000E1014FEF69E270E08FE890E00E94E10181
:102930004FEF69E270E080E990E00E94E1014FEF23
:1029400069E270E081E990E00E94E1014FEF69E205
:1029500070E082E990E00E94E1014FEF69E270E0EF
:1029600083E990E00E94E1014FEF6AE270E088E6BF
:1029700090E00E94E1014FEF6AE270E089E690E0AA
:102980000E94E1014FEF6AE270E08AE690E00E9467
:10299000E1014FEF6AE270E08BE690E00E94E10116
:1029A0004FEF6AE270E08CE690E00E94E1014FEFA9
:1029B0006AE270E08DE690E00E94E1014FEF6AE28A
:1029C00070E08EE690E00E94E1014FEF6AE270E075
:1029D00089E890E00E94E1014FEF6AE270E08AE846
:1029E00090E00E94E1014FEF6AE270E08BE890E036
:1029F0000E94E1014FEF6AE270E08CE890E00E94F3
:102A0000E1014FEF6AE270E08DE890E00E94E101A1
:102A10004FEF6AE270E08FE890E00E94E1014FEF33
:102A20006AE270E080E990E00E94E1014FEF6AE223
:102A300070E081E990E00E94E1014FEF6AE270E00E
:102A400082E990E00E94E1014FEF6AE270E083E9E1
:102A500090E00E94E1014FEF6BE270E088E690E0C9
:102A60000E94E1014FEF6BE270E089E690E00E9486
:102A7000E1014FEF6BE270E08AE690E00E94E10135
:102A80004FEF6BE270E08BE690E00E94E1014FEFC8
:102A90006BE270E08CE690E00E94E1014FEF6BE2A8
:102AA00070E08DE690E00E94E1014FEF6BE270E094
:102AB00089E890E00E94E1014FEF6BE270E08AE864
:102AC00090E00E94E1014FEF6BE270E08BE890E054
:102AD0000E94E1014FEF6BE270E08CE890E00E9411
:102AE000E1014FEF6BE270E08DE890E00E94E101C0
:102AF0004FEF6BE270E08FE890E00E94E1014FEF52
:102B00006BE270E080E990E00E94E1014FEF6BE240
:102B100070E081E990E00E94E1014FEF6BE270E02C
:102B200082E990E00E94E1014FEF6BE270E083E9FF
:102B300090E00E94E1014FEF6BE270E084E990E0E9
:102B40000E94E1014FEF6CE270E088E690E00E94A5
:102B5000E1014FEF6CE270E089E690E00E94E10154
:102B60004FEF6CE270E08AE690E00E94E1014FEFE7
:102B70006CE270E08BE690E00E94E1014FEF6CE2C6
:102B800070E08CE690E00E94E1014FEF6CE270E0B3
:102B90008DE690E00E94E1014FEF6CE270E08AE880
:102BA00090E00E94E1014FEF6CE270E08BE890E072
:102BB0000E94E1014FEF6CE270E08CE890E00E942F
:102BC000E1014FEF6CE270E08DE890E00E94E101DE
:102BD0004FEF6CE270E08EE890E00E94E1014FEF71
:102BE0006CE270E08FE890E00E94E1014FEF6CE250
:102BF00070E080E990E00E94E1014FEF6CE270E04C
:102C000081E990E00E94E1014FEF6CE270E082E91F
:102C100090E00E94E1014FEF6CE270E083E990E008
:102C20000E94E1014FEF6CE270E084E990E00E94C5
:102C3000E1014FEF6DE270E087E690E00E94E10174
:102C40004FEF6DE270E088E690E00E94E1014FEF07
:102C50006DE270E089E690E00E94E1014FEF6DE2E5
:102C600070E08AE690E00E94E1014FEF6DE270E0D3
:102C70008BE690E00E94E1014FEF6DE270E08CE6A0
:102C800090E00E94E1014FEF6DE270E08AE890E091
:102C90000E94E1014FEF6DE270E08BE890E00E944E
:102CA000E1014FEF6DE270E08CE890E00E94E101FD
:102CB0004FEF6DE270E08DE890E00E94E1014FEF90
:102CC0006DE270E08EE890E00E94E1014FEF6DE26E
:102CD00070E08FE890E00E94E1014FEF6DE270E05C
:102CE00080E990E00E94E1014FEF6DE270E081E940
:102CF00090E00E94E1014FEF6DE270E082E990E028
:102D00000E94E1014FEF6DE270E083E990E00E94E4
:102D1000E1014FEF6DE270E084E990E00E94E10193
:102D20004FEF6EE270E087E690E00E94E1014FEF26
:102D30006EE270E088E690E00E94E1014FEF6EE203
:102D400070E089E690E00E94E1014FEF6EE270E0F2
:102D50008AE690E00E94E1014FEF6EE270E08BE6C0
:102D600090E00E94E1014FEF6EE270E08CE690E0AF
:102D70000E94E1014FEF6EE270E08AE890E00E946D
:102D8000E1014FEF6EE270E08BE890E00E94E1011C
:102D90004FEF6EE270E08CE890E00E94E1014FEFAF
:102DA0006EE270E08DE890E00E94E1014FEF6EE28C
:102DB00070E08EE890E00E94E1014FEF6EE270E07B
:102DC0008FE890E00E94E1014FEF6EE270E080E951
:102DD00090E00E94E1014FEF6EE270E081E990E047
:102DE0000E94E1014FEF6EE270E082E990E00E9404
:102DF000E1014FEF6EE270E083E990E00E94E101B3
:102E00004FEF6EE270E084E990E00E94E1014FEF45
:102E10006EE270E085E990E00E94E1014FEF6FE221
:102E200070E086E690E00E94E1014FEF6FE270E013
:102E300087E690E00E94E1014FEF6FE270E088E6E4
:102E400090E00E94E1014FEF6FE270E089E690E0D0
:102E50000E94E1014FEF6FE270E08AE690E00E948D
:102E6000E1014FEF6FE270E08BE690E00E94E1013C
:102E70004FEF6FE270E08CE690E00E94E1014FEFCF
:102E80006FE270E08AE890E00E94E1014FEF6FE2AC
:102E900070E08BE890E00E94E1014FEF6FE270E09C
:102EA0008CE890E00E94E1014FEF6FE270E08DE866
:102EB00090E00E94E1014FEF6FE270E08EE890E059
:102EC0000E94E1014FEF6FE270E08FE890E00E9416
:102ED000E1014FEF6FE270E080E990E00E94E101D4
:102EE0004FEF6FE270E081E990E00E94E1014FEF67
:102EF0006FE270E082E990E00E94E1014FEF6FE243
:102F000070E083E990E00E94E1014FEF6FE270E032
:102F100084E990E00E94E1014FEF6FE270E085E903
:102F200090E00E94E1014FEF60E370E086E690E000
:102F30000E94E1014FEF60E370E087E690E00E94BD
:102F4000E1014FEF60E370E088E690E00E94E1016C
:102F50004FEF60E370E089E690E00E94E1014FEFFF
:102F600060E370E08AE690E00E94E1014FEF60E3E9
:102F700070E08BE690E00E94E1014FEF60E370E0CB
:102F80008CE690E00E94E1014FEF60E370E08AE898
:102F900090E00E94E1014FEF60E370E08BE890E089
:102FA0000E94E1014FEF60E370E08CE890E00E9446
:102FB000E1014FEF60E370E08DE890E00E94E101F5
:102FC0004FEF60E370E08EE890E00E94E1014FEF88
:102FD00060E370E08FE890E00E94E1014FEF60E372
:102FE00070E080E990E00E94E1014FEF60E370E063
:102FF00081E990E00E94E1014FEF60E370E082E937
:1030000090E00E94E1014FEF60E370E083E990E01F
:103010000E94E1014FEF60E370E084E990E00E94DC
:10302000E1014FEF60E370E085E990E00E94E1018B
:103030004FEF61E370E085E690E00E94E1014FEF21
:1030400061E370E086E690E00E94E1014FEF61E30A
:1030500070E087E690E00E94E1014FEF61E370E0ED
:1030600088E690E00E94E1014FEF61E370E089E6BD
:1030700090E00E94E1014FEF61E370E08AE690E0AA
:103080000E94E1014FEF61E370E08BE690E00E9467
:10309000E1014FEF61E370E08CE690E00E94E10116
:1030A0004FEF61E370E08AE890E00E94E1014FEFAA
:1030B00061E370E08BE890E00E94E1014FEF61E393
:1030C00070E08CE890E00E94E1014FEF61E370E076
:1030D0008DE890E00E94E1014FEF61E370E08EE83F
:1030E00090E00E94E1014FEF61E370E08FE890E033
:1030F0000E94E1014FEF61E370E080E990E00E94FF
:10310000E1014FEF61E370E081E990E00E94E101AD
:103110004FEF61E370E082E990E00E94E1014FEF40
:1031200061E370E083E990E00E94E1014FEF61E329
:1031300070E084E990E00E94E1014FEF61E370E00C
:1031400085E990E00E94E1014FEF62E370E085E6DF
:1031500090E00E94E1014FEF62E370E086E690E0CC
:103160000E94E1014FEF62E370E087E690E00E9489
:10317000E1014FEF62E370E088E690E00E94E10138
:103180004FEF62E370E089E690E00E94E1014FEFCB
:1031900062E370E08AE690E00E94E1014FEF62E3B3
:1031A00070E08BE690E00E94E1014FEF62E370E097
:1031B0008CE690E00E94E1014FEF62E370E08AE864
:1031C00090E00E94E1014FEF62E370E08BE890E055
:1031D0000E94E1014FEF62E370E08CE890E00E9412
:1031E000E1014FEF62E370E08DE890E00E94E101C1
:1031F0004FEF62E370E08FE890E00E94E1014FEF53
:1032000062E370E080E990E00E94E1014FEF62E349
:1032100070E081E990E00E94E1014FEF62E370E02D
:1032200082E990E00E94E1014FEF62E370E083E900
:1032300090E00E94E1014FEF62E370E084E990E0EA
:103240000E94E1014FEF62E370E085E990E00E94A7
:10325000E1014FEF63E370E085E690E00E94E10159
:103260004FEF63E370E086E690E00E94E1014FEFEC
:1032700063E370E087E690E00E94E1014FEF63E3D3
:1032800070E088E690E00E94E1014FEF63E370E0B8
:103290008AE690E00E94E1014FEF63E370E08BE685
:1032A00090E00E94E1014FEF63E370E08CE690E074
:1032B0000E94E1014FEF63E370E08AE890E00E9432
:1032C000E1014FEF63E370E08BE890E00E94E101E1
:1032D0004FEF63E370E08CE890E00E94E1014FEF74
:1032E00063E370E08DE890E00E94E1014FEF63E35B
:1032F00070E08FE890E00E94E1014FEF63E370E03F
:1033000080E990E00E94E1014FEF63E370E081E922
:1033100090E00E94E1014FEF63E370E082E990E00A
:103320000E94E1014FEF63E370E083E990E00E94C7
:10333000E1014FEF63E370E084E990E00E94E10176
:103340004FEF63E370E085E990E00E94E1014FEF09
:1033500064E370E085E690E00E94E1014FEF64E3F2
:1033600070E086E690E00E94E1014FEF64E370E0D8
:1033700087E690E00E94E1014FEF64E370E088E6A9
:1033800090E00E94E1014FEF64E370E089E690E095
:103390000E94E1014FEF64E370E08AE690E00E9452
:1033A000E1014FEF64E370E08BE690E00E94E10101
:1033B0004FEF64E370E08CE690E00E94E1014FEF94
:1033C00064E370E08CE890E00E94E1014FEF64E379
:1033D00070E08DE890E00E94E1014FEF64E370E05F
:1033E0008EE890E00E94E1014FEF64E370E080E935
:1033F00090E00E94E1014FEF64E370E081E990E02A
:103400000E94E1014FEF64E370E082E990E00E94E6
:10341000E1014FEF64E370E083E990E00E94E10195
:103420004FEF64E370E084E990E00E94E1014FEF28
:1034300064E370E085E990E00E94E1014FEF64E30E
:1034400070E086E990E00E94E1014FEF65E370E0F3
:1034500085E690E00E94E1014FEF65E370E086E6CB
:1034600090E00E94E1014FEF65E370E087E690E0B5
:103470000E94E1014FEF65E370E088E690E00E9472
:10348000E1014FEF65E370E089E690E00E94E10121
:103490004FEF65E370E08AE690E00E94E1014FEFB4
:1034A00065E370E08BE690E00E94E1014FEF65E399
:1034B00070E08AE890E00E94E1014FEF65E370E080
:1034C0008BE890E00E94E1014FEF65E370E08CE84B
:1034D00090E00E94E1014FEF65E370E08DE890E03D
:1034E0000E94E1014FEF65E370E08EE890E00E94FA
:1034F000E1014FEF65E370E08FE890E00E94E101A9
:103500004FEF65E370E080E990E00E94E1014FEF4A
:1035100065E370E081E990E00E94E1014FEF65E32F
:1035200070E082E990E00E94E1014FEF65E370E016
:1035300083E990E00E94E1014FEF65E370E084E9E8
:1035400090E00E94E1014FEF65E370E085E990E0D3
:103550000E94E1014FEF66E370E085E690E00E9493
:10356000E1014FEF66E370E086E690E00E94E10142
:103570004FEF66E370E087E690E00E94E1014FEFD5
:1035800066E370E088E690E00E94E1014FEF66E3B9
:1035900070E089E690E00E94E1014FEF66E370E0A1
:1035A0008AE690E00E94E1014FEF66E370E08BE66F
:1035B00090E00E94E1014FEF66E370E08AE890E05E
:1035C0000E94E1014FEF66E370E08BE890E00E941B
:1035D000E1014FEF66E370E08CE890E00E94E101CA
:1035E0004FEF66E370E08DE890E00E94E1014FEF5D
:1035F00066E370E08EE890E00E94E1014FEF66E341
:1036000070E08FE890E00E94E1014FEF66E370E028
:1036100080E990E00E94E1014FEF66E370E081E90C
:1036200090E00E94E1014FEF66E370E082E990E0F4
:103630000E94E1014FEF66E370E083E990E00E94B1
:10364000E1014FEF66E370E084E990E00E94E10160
:103650004FEF66E370E085E990E00E94E1014FEFF3
:1036600067E370E089E690E00E94E1014FEF67E3D5
:1036700070E08AE690E00E94E1014FEF67E370E0BE
:103680008BE690E00E94E1014FEF67E370E08CE68B
:1036900090E00E94E1014FEF67E370E088E890E07E
:1036A0000E94E1014FEF67E370E089E890E00E943B
:1036B000E1014FEF67E370E08AE890E00E94E101EA
:1036C0004FEF67E370E08BE890E00E94E1014FEF7D
:1036D00067E370E08CE890E00E94E1014FEF67E360
:1036E00070E08DE890E00E94E1014FEF67E370E049
:1036F0008EE890E00E94E1014FEF67E370E08FE811
:1037000090E00E94E1014FEF67E370E080E990E014
:103710000E94E1014FEF67E370E081E990E00E94D1
:10372000E1014FEF67E370E082E990E00E94E10180
:103730004FEF67E370E083E990E00E94E1014FEF13
:1037400067E370E084E990E00E94E1014FEF67E3F6
:1037500070E085E990E00E94E1014FEF68E370E0DE
:1037600084E690E00E94E1014FEF68E370E08AE6B2
:1037700090E00E94E1014FEF68E370E08BE690E09B
:103780000E94E1014FEF68E370E08CE690E00E9458
:10379000E1014FEF68E370E08DE690E00E94E10107
:1037A0004FEF68E370E087E890E00E94E1014FEF9F
:1037B00068E370E088E890E00E94E1014FEF68E381
:1037C00070E08AE890E00E94E1014FEF68E370E06A
:1037D0008BE890E00E94E1014FEF68E370E08CE835
:1037E00090E00E94E1014FEF68E370E08DE890E027
:1037F0000E94E1014FEF68E370E08EE890E00E94E4
:10380000E1014FEF68E370E08FE890E00E94E10192
:103810004FEF68E370E080E990E00E94E1014FEF34
:1038200068E370E081E990E00E94E1014FEF68E316
:1038300070E082E990E00E94E1014FEF68E370E000
:1038400083E990E00E94E1014FEF68E370E084E9D2
:1038500090E00E94E1014FEF69E370E084E690E0C0
:103860000E94E1014FEF69E370E08BE690E00E9477
:10387000E1014FEF69E370E08CE690E00E94E10126
:103880004FEF69E370E08DE690E00E94E1014FEFB9
:1038900069E370E08EE690E00E94E1014FEF69E39A
:1038A00070E087E890E00E94E1014FEF69E370E08B
:1038B0008AE890E00E94E1014FEF69E370E08BE855
:1038C00090E00E94E1014FEF69E370E08CE890E046
:1038D0000E94E1014FEF69E370E08DE890E00E9403
:1038E000E1014FEF69E370E08EE890E00E94E101B2
:1038F0004FEF69E370E08FE890E00E94E1014FEF45
:1039000069E370E080E990E00E94E1014FEF69E334
:1039100070E081E990E00E94E1014FEF69E370E01F
:1039200082E990E00E94E1014FEF69E370E083E9F2
:1039300090E00E94E1014FEF6AE370E083E690E0DF
:103940000E94E1014FEF6AE370E084E690E00E949C
:10395000E1014FEF6AE370E08CE690E00E94E10144
:103960004FEF6AE370E08DE690E00E94E1014FEFD7
:103970006AE370E08EE690E00E94E1014FEF6AE3B7
:1039800070E08FE690E00E94E1014FEF6AE370E0A3
:1039900087E890E00E94E1014FEF6AE370E08BE876
:1039A00090E00E94E1014FEF6AE370E08CE890E064
:1039B0000E94E1014FEF6AE370E08DE890E00E9421
:1039C000E1014FEF6AE370E08EE890E00E94E101D0
:1039D0004FEF6AE370E08FE890E00E94E1014FEF63
:1039E0006AE370E080E990E00E94E1014FEF6AE352
:1039F00070E081E990E00E94E1014FEF6AE370E03E
:103A000082E990E00E94E1014FEF6AE370E086E90D
:103A100090E00E94E1014FEF6BE370E082E690E0FE
:103A20000E94E1014FEF6BE370E083E690E00E94BB
:103A3000E1014FEF6BE370E084E690E00E94E1016A
:103A40004FEF6BE370E08CE690E00E94E1014FEFF6
:103A50006BE370E08DE690E00E94E1014FEF6BE3D5
:103A600070E08EE690E00E94E1014FEF6BE370E0C2
:103A70008FE690E00E94E1014FEF6BE370E080E79A
:103A800090E00E94E1014FEF6BE370E087E890E087
:103A90000E94E1014FEF6BE370E08CE890E00E9440
:103AA000E1014FEF6BE370E08DE890E00E94E101EF
:103AB0004FEF6BE370E08EE890E00E94E1014FEF82
:103AC0006BE370E08FE890E00E94E1014FEF6BE361
:103AD00070E080E990E00E94E1014FEF6BE370E05D
:103AE00081E990E00E94E1014FEF6BE370E086E92D
:103AF00090E00E94E1014FEF6CE370E08DE590E013
:103B00000E94E1014FEF6CE370E08EE590E00E94CF
:103B1000E1014FEF6CE370E08FE590E00E94E1017E
:103B20004FEF6CE370E080E690E00E94E1014FEF20
:103B30006CE370E081E690E00E94E1014FEF6CE3FE
:103B400070E082E690E00E94E1014FEF6CE370E0EC
:103B500083E690E00E94E1014FEF6CE370E08DE6B8
:103B600090E00E94E1014FEF6CE370E08EE690E0A0
:103B70000E94E1014FEF6CE370E08FE690E00E945D
:103B8000E1014FEF6CE370E080E790E00E94E1011B
:103B90004FEF6CE370E081E790E00E94E1014FEFAE
:103BA0006CE370E082E790E00E94E1014FEF6CE38C
:103BB00070E087E890E00E94E1014FEF6CE370E075
:103BC0008DE890E00E94E1014FEF6CE370E086E940
:103BD00090E00E94E1014FEF6DE370E08CE590E032
:103BE0000E94E1014FEF6DE370E08DE590E00E94EF
:103BF000E1014FEF6DE370E08EE690E00E94E1019D
:103C00004FEF6DE370E08FE690E00E94E1014FEF2F
:103C10006DE370E080E790E00E94E1014FEF6DE31B
:103C200070E081E790E00E94E1014FEF6DE370E00A
:103C300082E790E00E94E1014FEF6DE370E083E7DF
:103C400090E00E94E1014FEF6DE370E087E890E0C3
:103C50000E94E1014FEF6DE370E086E990E00E9481
:103C6000E1014FEF6DE370E087E990E00E94E10130
:103C70004FEF6EE370E08CE590E00E94E1014FEFC2
:103C80006EE370E08DE590E00E94E1014FEF6EE39E
:103C900070E08EE690E00E94E1014FEF6EE370E08D
:103CA0008FE690E00E94E1014FEF6EE370E080E765
:103CB00090E00E94E1014FEF6EE370E081E790E059
:103CC0000E94E1014FEF6EE370E082E790E00E9416
:103CD000E1014FEF6EE370E083E790E00E94E101C5
:103CE0004FEF6EE370E084E790E00E94E1014FEF58
:103CF0006EE370E087E890E00E94E1014FEF6EE331
:103D000070E086E990E00E94E1014FEF6EE370E021
:103D100087E990E00E94E1014FEF6EE370E088E9EF
:103D200090E00E94E1014FEF6FE370E08CE590E0DE
:103D30000E94E1014FEF6FE370E08DE590E00E949B
:103D4000E1014FEF6FE370E08FE690E00E94E10148
:103D50004FEF6FE370E080E790E00E94E1014FEFEA
:103D60006FE370E081E790E00E94E1014FEF6FE3C5
:103D700070E082E790E00E94E1014FEF6FE370E0B6
:103D800083E790E00E94E1014FEF6FE370E084E78A
:103D900090E00E94E1014FEF6FE370E087E890E070
:103DA0000E94E1014FEF6FE370E088E890E00E942D
:103DB000E1014FEF6FE370E087E990E00E94E101DD
:103DC0004FEF6FE370E088E990E00E94E1014FEF70
:103DD0006FE370E089E990E00E94E1014FEF60E459
:103DE00070E08CE590E00E94E1014FEF60E470E04C
:103DF0008DE590E00E94E1014FEF60E470E08EE518
:103E000090E00E94E1014FEF60E470E080E790E015
:103E10000E94E1014FEF60E470E081E790E00E94D2
:103E2000E1014FEF60E470E082E790E00E94E10181
:103E30004FEF60E470E083E790E00E94E1014FEF14
:103E400060E470E084E790E00E94E1014FEF60E4FD
:103E500070E087E890E00E94E1014FEF60E470E0DD
:103E600088E890E00E94E1014FEF60E470E088E9AB
:103E700090E00E94E1014FEF60E470E089E990E09A
:103E80000E94E1014FEF60E470E08AE990E00E9457
:103E9000E1014FEF61E470E08DE590E00E94E10107
:103EA0004FEF61E470E08EE590E00E94E1014FEF9A
:103EB00061E470E080E790E00E94E1014FEF61E48F
:103EC00070E081E790E00E94E1014FEF61E470E073
:103ED00082E790E00E94E1014FEF61E470E083E748
:103EE00090E00E94E1014FEF61E470E084E790E030
:103EF0000E94E1014FEF61E470E084E890E00E94ED
:103F0000E1014FEF61E470E085E890E00E94E1019B
:103F10004FEF61E470E087E890E00E94E1014FEF2D
:103F200061E470E088E890E00E94E1014FEF61E415
:103F300070E08AE990E00E94E1014FEF61E470E0F7
:103F40008BE990E00E94E1014FEF61E470E08CE9C1
:103F500090E00E94E1014FEF62E470E08DE590E0B7
:103F60000E94E1014FEF62E470E08EE590E00E9474
:103F7000E1014FEF62E470E081E790E00E94E1012F
:103F80004FEF62E470E082E790E00E94E1014FEFC2
:103F900062E470E083E790E00E94E1014FEF62E4A9
:103FA00070E084E890E00E94E1014FEF62E470E08D
:103FB00085E890E00E94E1014FEF62E470E087E85D
:103FC00090E00E94E1014FEF62E470E088E890E049
:103FD0000E94E1014FEF62E470E08BE990E00E9403
:103FE000E1014FEF62E470E08CE990E00E94E101B2
:103FF0004FEF63E470E08DE590E00E94E1014FEF48
:1040000063E470E08EE590E00E94E1014FEF63E42D
:1040100070E082E790E00E94E1014FEF63E470E01E
:1040200082E890E00E94E1014FEF63E470E083E8F2
:1040300090E00E94E1014FEF63E470E084E890E0DB
:104040000E94E1014FEF63E470E085E890E00E9498
:10405000E1014FEF63E470E087E890E00E94E10146
:104060004FEF63E470E088E890E00E94E1014FEFD9
:1040700063E470E08BE990E00E94E1014FEF63E4BC
:1040800070E08CE990E00E94E1014FEF64E470E0A1
:104090008DE590E00E94E1014FEF64E470E08EE571
:1040A00090E00E94E1014FEF64E470E082E790E06D
:1040B0000E94E1014FEF64E470E083E790E00E942A
:1040C000E1014FEF64E470E085E790E00E94E101D8
:1040D0004FEF64E470E086E790E00E94E1014FEF6B
:1040E00064E470E081E890E00E94E1014FEF64E455
:1040F00070E082E890E00E94E1014FEF64E470E03C
:1041000083E890E00E94E1014FEF64E470E084E80E
:1041100090E00E94E1014FEF64E470E085E890E0F8
:104120000E94E1014FEF64E470E087E890E00E94B4
:10413000E1014FEF64E470E088E890E00E94E10163
:104140004FEF64E470E08AE990E00E94E1014FEFF4
:1041500064E470E08BE990E00E94E1014FEF65E4D8
:1041600070E08CE590E00E94E1014FEF65E470E0C3
:104170008DE590E00E94E1014FEF65E470E083E798
:1041800090E00E94E1014FEF65E470E084E790E089
:104190000E94E1014FEF65E470E085E790E00E9446
:1041A000E1014FEF65E470E086E790E00E94E101F5
:1041B0004FEF65E470E087E790E00E94E1014FEF88
:1041C00065E470E088E790E00E94E1014FEF65E46C
:1041D00070E08EE790E00E94E1014FEF65E470E04F
:1041E0008FE790E00E94E1014FEF65E470E080E826
:1041F00090E00E94E1014FEF65E470E081E890E01B
:104200000E94E1014FEF65E470E082E890E00E94D7
:10421000E1014FEF65E470E083E890E00E94E10186
:104220004FEF65E470E084E890E00E94E1014FEF19
:1042300065E470E085E890E00E94E1014FEF65E4FD
:1042400070E086E890E00E94E1014FEF65E470E0E5
:1042500087E890E00E94E1014FEF65E470E088E8B4
:1042600090E00E94E1014FEF65E470E088E990E0A2
:104270000E94E1014FEF65E470E089E990E00E945F
:10428000E1014FEF65E470E08AE990E00E94E1010E
:104290004FEF66E470E08CE590E00E94E1014FEFA3
:1042A00066E470E08DE590E00E94E1014FEF66E486
:1042B00070E083E790E00E94E1014FEF66E470E078
:1042C00084E790E00E94E1014FEF66E470E086E74A
:1042D00090E00E94E1014FEF66E470E087E790E034
:1042E0000E94E1014FEF66E470E088E790E00E94F1
:1042F000E1014FEF66E470E089E790E00E94E101A0
:104300004FEF66E470E08AE790E00E94E1014FEF32
:1043100066E470E08BE790E00E94E1014FEF66E415
:1043200070E08CE790E00E94E1014FEF66E470E0FE
:104330008DE790E00E94E1014FEF66E470E08EE7C8
:1043400090E00E94E1014FEF66E470E08FE790E0BB
:104350000E94E1014FEF66E470E080E890E00E9487
:10436000E1014FEF66E470E081E890E00E94E10136
:104370004FEF66E470E082E890E00E94E1014FEFC9
:1043800066E470E083E890E00E94E1014FEF66E4AC
:1043900070E084E890E00E94E1014FEF66E470E095
:1043A00085E890E00E94E1014FEF66E470E086E866
:1043B00090E00E94E1014FEF66E470E087E890E052
:1043C0000E94E1014FEF66E470E088E890E00E940F
:1043D000E1014FEF66E470E085E990E00E94E101C1
:1043E0004FEF66E470E086E990E00E94E1014FEF54
:1043F00066E470E087E990E00E94E1014FEF66E437
:1044000070E088E990E00E94E1014FEF66E470E01F
:1044100089E990E00E94E1014FEF67E470E08CE5EC
:1044200090E00E94E1014FEF67E470E08DE590E0DD
:104430000E94E1014FEF67E470E083E790E00E94A3
:10444000E1014FEF67E470E084E790E00E94E10152
:104450004FEF67E470E085E790E00E94E1014FEFE5
:1044600067E470E086E790E00E94E1014FEF67E4C7
:1044700070E087E790E00E94E1014FEF67E470E0B1
:1044800088E790E00E94E1014FEF67E470E089E780
:1044900090E00E94E1014FEF67E470E08AE790E06E
:1044A0000E94E1014FEF67E470E08BE790E00E942B
:1044B000E1014FEF67E470E08CE790E00E94E101DA
:1044C0004FEF67E470E08DE790E00E94E1014FEF6D
:1044D00067E470E08EE790E00E94E1014FEF67E44F
:1044E00070E08FE790E00E94E1014FEF67E470E039
:1044F00080E890E00E94E1014FEF67E470E081E81E
:1045000090E00E94E1014FEF67E470E082E890E004
:104510000E94E1014FEF67E470E083E890E00E94C1
:10452000E1014FEF67E470E084E890E00E94E10170
:104530004FEF67E470E086E890E00E94E1014FEF02
:1045400067E470E087E890E00E94E1014FEF67E4E4
:1045500070E083E990E00E94E1014FEF67E470E0D2
:1045600084E990E00E94E1014FEF67E470E085E9A3
:1045700090E00E94E1014FEF67E470E086E990E08F
:104580000E94E1014FEF67E470E087E990E00E944C
:10459000E1014FEF68E470E08CE590E00E94E101FA
:1045A0004FEF68E470E08DE590E00E94E1014FEF8D
:1045B00068E470E08EE590E00E94E1014FEF68E46E
:1045C00070E08FE590E00E94E1014FEF68E470E059
:1045D00080E690E00E94E1014FEF68E470E083E73D
:1045E00090E00E94E1014FEF68E470E084E790E022
:1045F0000E94E1014FEF68E470E085E790E00E94DF
:10460000E1014FEF68E470E086E790E00E94E1018D
:104610004FEF68E470E087E790E00E94E1014FEF20
:1046200068E470E088E790E00E94E1014FEF68E401
:1046300070E089E790E00E94E1014FEF68E470E0EC
:104640008AE790E00E94E1014FEF68E470E08BE7B9
:1046500090E00E94E1014FEF68E470E08CE790E0A9
:104660000E94E1014FEF68E470E08DE790E00E9466
:10467000E1014FEF68E470E08EE790E00E94E10115
:104680004FEF68E470E08FE790E00E94E1014FEFA8
:1046900068E470E080E890E00E94E1014FEF68E498
:1046A00070E081E890E00E94E1014FEF68E470E083
:1046B00082E890E00E94E1014FEF68E470E083E857
:1046C00090E00E94E1014FEF68E470E084E890E040
:1046D0000E94E1014FEF68E470E086E890E00E94FC
:1046E000E1014FEF68E470E087E890E00E94E101AB
:1046F0004FEF68E470E082E990E00E94E1014FEF43
:1047000068E470E083E990E00E94E1014FEF68E423
:1047100070E084E990E00E94E1014FEF68E470E00E
:1047200085E990E00E94E1014FEF69E470E08EE5D9
:1047300090E00E94E1014FEF69E470E08FE590E0C6
:104740000E94E1014FEF69E470E080E690E00E9492
:10475000E1014FEF69E470E081E690E00E94E10141
:104760004FEF69E470E082E690E00E94E1014FEFD4
:1047700069E470E083E690E00E94E1014FEF69E4B4
:1047800070E084E690E00E94E1014FEF69E470E0A0
:1047900083E790E00E94E1014FEF69E470E084E775
:1047A00090E00E94E1014FEF69E470E085E790E05E
:1047B0000E94E1014FEF69E470E086E790E00E941B
:1047C000E1014FEF69E470E087E790E00E94E101CA
:1047D0004FEF69E470E088E790E00E94E1014FEF5D
:1047E00069E470E089E790E00E94E1014FEF69E43D
:1047F00070E08AE790E00E94E1014FEF69E470E029
:104800008BE790E00E94E1014FEF69E470E08CE7F4
:1048100090E00E94E1014FEF69E470E08DE790E0E5
:104820000E94E1014FEF69E470E08EE790E00E94A2
:10483000E1014FEF69E470E08FE790E00E94E10151
:104840004FEF69E470E080E890E00E94E1014FEFF3
:1048500069E470E081E890E00E94E1014FEF69E4D3
:1048600070E082E890E00E94E1014FEF69E470E0BF
:1048700083E890E00E94E1014FEF69E470E084E892
:1048800090E00E94E1014FEF69E470E085E890E07C
:104890000E94E1014FEF69E470E086E890E00E9439
:1048A000E1014FEF69E470E087E890E00E94E101E8
:1048B0004FEF69E470E088E890E00E94E1014FEF7B
:1048C00069E470E080E990E00E94E1014FEF69E463
:1048D00070E081E990E00E94E1014FEF69E470E04F
:1048E00082E990E00E94E1014FEF69E470E083E922
:1048F00090E00E94E1014FEF6AE470E082E690E010
:104900000E94E1014FEF6AE470E083E690E00E94CC
:10491000E1014FEF6AE470E084E690E00E94E1017B
:104920004FEF6AE470E085E690E00E94E1014FEF0E
:104930006AE470E086E690E00E94E1014FEF6AE4ED
:1049400070E087E690E00E94E1014FEF6AE470E0DA
:1049500088E690E00E94E1014FEF6AE470E089E6AA
:1049600090E00E94E1014FEF6AE470E082E790E09E
:104970000E94E1014FEF6AE470E083E790E00E945B
:10498000E1014FEF6AE470E084E790E00E94E1010A
:104990004FEF6AE470E085E790E00E94E1014FEF9D
:1049A0006AE470E086E790E00E94E1014FEF6AE47C
:1049B00070E087E790E00E94E1014FEF6AE470E069
:1049C00088E790E00E94E1014FEF6AE470E089E738
:1049D00090E00E94E1014FEF6AE470E08AE790E026
:1049E0000E94E1014FEF6AE470E08BE790E00E94E3
:1049F000E1014FEF6AE470E08CE790E00E94E10192
:104A00004FEF6AE470E08DE790E00E94E1014FEF24
:104A10006AE470E08EE790E00E94E1014FEF6AE403
:104A200070E08FE790E00E94E1014FEF6AE470E0F0
:104A300080E890E00E94E1014FEF6AE470E081E8D5
:104A400090E00E94E1014FEF6AE470E082E890E0BC
:104A50000E94E1014FEF6AE470E083E890E00E9479
:104A6000E1014FEF6AE470E084E890E00E94E10128
:104A70004FEF6AE470E085E890E00E94E1014FEFBB
:104A80006AE470E086E890E00E94E1014FEF6AE49A
:104A900070E087E890E00E94E1014FEF6AE470E087
:104AA00088E890E00E94E1014FEF6AE470E089E855
:104AB00090E00E94E1014FEF6AE470E08FE890E03F
:104AC0000E94E1014FEF6AE470E080E990E00E940B
:104AD000E1014FEF6AE470E081E990E00E94E101BA
:104AE0004FEF6AE470E082E990E00E94E1014FEF4D
:104AF0006BE470E086E690E00E94E1014FEF6BE42A
:104B000070E087E690E00E94E1014FEF6BE470E017
:104B100088E690E00E94E1014FEF6BE470E089E6E7
:104B200090E00E94E1014FEF6BE470E08AE690E0D4
:104B30000E94E1014FEF6BE470E08BE690E00E9491
:104B4000E1014FEF6BE470E08CE690E00E94E10140
:104B50004FEF6BE470E08DE690E00E94E1014FEFD3
:104B60006BE470E080E790E00E94E1014FEF6BE4BE
:104B700070E081E790E00E94E1014FEF6BE470E0AC
:104B800082E790E00E94E1014FEF6BE470E083E781
:104B900090E00E94E1014FEF6BE470E084E790E069
:104BA0000E94E1014FEF6BE470E086E890E00E9424
:104BB000E1014FEF6BE470E087E890E00E94E101D3
:104BC0004FEF6BE470E088E890E00E94E1014FEF66
:104BD0006BE470E089E890E00E94E1014FEF6BE444
:104BE00070E08AE890E00E94E1014FEF6BE470E032
:104BF0008DE890E00E94E1014FEF6BE470E08EE8F9
:104C000090E00E94E1014FEF6BE470E08FE890E0EC
:104C10000E94E1014FEF6BE470E080E990E00E94B8
:104C2000E1014FEF6BE470E081E990E00E94E10167
:104C30004FEF6CE470E089E690E00E94E1014FEFF5
:104C40006CE470E08AE690E00E94E1014FEF6CE4D2
:104C500070E08BE690E00E94E1014FEF6CE470E0C1
:104C60008CE690E00E94E1014FEF6CE470E08DE68D
:104C700090E00E94E1014FEF6CE470E08EE690E07E
:104C80000E94E1014FEF6CE470E08FE690E00E943B
:104C9000E1014FEF6CE470E080E790E00E94E101F9
:104CA0004FEF6CE470E081E790E00E94E1014FEF8C
:104CB0006CE470E082E790E00E94E1014FEF6CE469
:104CC00070E083E790E00E94E1014FEF6CE470E058
:104CD00087E890E00E94E1014FEF6CE470E088E823
:104CE00090E00E94E1014FEF6CE470E089E890E011
:104CF0000E94E1014FEF6CE470E08AE890E00E94CE
:104D0000E1014FEF6CE470E08BE890E00E94E1017C
:104D10004FEF6CE470E08CE890E00E94E1014FEF0F
:104D20006CE470E08DE890E00E94E1014FEF6CE4EC
:104D300070E08EE890E00E94E1014FEF6CE470E0DB
:104D40008FE890E00E94E1014FEF6CE470E080E9B1
:104D500090E00E94E1014FEF6DE470E08CE690E09E
:104D60000E94E1014FEF6DE470E08DE690E00E945B
:104D7000E1014FEF6DE470E08EE690E00E94E1010A
:104D80004FEF6DE470E08FE690E00E94E1014FEF9D
:104D90006DE470E080E790E00E94E1014FEF6DE488
:104DA00070E081E790E00E94E1014FEF6DE470E078
:104DB00088E890E00E94E1014FEF6DE470E089E83F
:104DC00090E00E94E1014FEF6DE470E08AE890E02E
:104DD0000E94E1014FEF6DE470E08BE890E00E94EB
:104DE000E1014FEF6DE470E08CE890E00E94E1019A
:104DF0004FEF6DE470E08DE890E00E94E1014FEF2D
:104E00006DE470E08EE890E00C94E101CF93DF93C5
:104E100060E070E080E090E00E94BC01C0E0DFE074
:104E200080E00E94D5012197D9F7DF91CF910895B5
:104E30000E9480010E9406270E94F20140EE52E08B
:104E40006CE270E086E190E00E940801FFCFF894E8
:024E5000FFCF92
:104E5200000000000000005F0000000700070014CF
:104E62007F147F14242A7F2A12231308646236498E
:104E72005522500005030000001C2241000041227F
:104E82001C00082A1C2A0808083E080800503000A6
:104E920000080808080800606000002010080402EA
:104EA2003E5149453E00427F400042615149462100
:104EB20041454B311814127F1027454545393C4A6C
:104EC20049493001710905033649494936064949BC
:104ED200291E003636000000563600000008142253
:104EE2004114141414144122140800020151090639
:104EF200324979413E7E1111117E7F494949363E40
:104F0200414141227F4141221C7F494949417F0958
:104F12000901013E414151327F0808087F00417F6B
:104F220041002040413F017F081422417F40404020
:104F3200407F0204027F7F0408107F3E4141413ED0
:104F42007F090909063E4151215E7F09192946461A
:104F52004949493101017F01013F4040403F1F2043
:104F620040201F7F2018207F6314081463030478F5
:104F72000403615149454300007F41410204081086
:104F82002041417F000004020102044040404040B1
:104F9200000102040020545454787F4844443838B5
:104FA20044444420384444487F3854545418087EBA
:104FB200090102081454543C7F0804047800447D1B
:104FC20040002040443D00007F10284400417F40C3
:104FD200007C041804787C0804047838444444387B
:104FE2007C14141408081414187C7C08040408485F
:104FF20054545420043F4440203C4040207C1C2018
:1050020040201C3C4030403C44281028440C505066
:10501200503C4464544C44000836410000007F0078
:1050220000004136080008082A1C08081C2A080843
:10503200212223242526273D0A28292A2B2C2D2EFE
:105042002F0A3A3B3C3E3F405B0A5D5E5F607C7BE1
:025052007D00DF
:00000001FF
