:100000000C94E4010C940C020C940C020C940C0261
:100010000C940C020C940C020C940C020C940C0228
:100020000C940C020C940C020C940C020C940C0218
:100030000C940C020C940C020C940C020C940C0208
:100040000C945F060C940C020C942D060C9407067D
:100050000C940C020C940C020C940C020C940C02E8
:100060000C940C020C940C025869616F6C61626113
:100070002C20323031322D4D41592D31312C204838
:10008000495441434849204C4D4736343031504C57
:1000900047452E2063686970204844363138333034
:1000A000422C2074657374696E67007C20474E444F
:1000B0007C202B35567C202020207C205042347C14
:1000C000205042337C205042327C205042317C20F0
:1000D0005042307C205044377C205044367C2050A5
:1000E00044357C205044347C205044337C205044A0
:1000F000327C202020207C20202020207C202020DA
:1001000020207C202020207C202020207C202020DB
:10011000207C2041746D65676133323850007C204B
:10012000474E447C202B35567C202020207C2031DB
:1001300032207C203131207C203130207C2039203D
:10014000207C203820207C203720207C2036202056
:100150007C203520207C203420207C203320207CF3
:10016000203220207C202020207C20202020207C69
:1001700020202020207C202020207C202020207C6B
:10018000202020207C2041726475696E6F007C20E5
:10019000474E447C202B35567C20566F207C2052C5
:1001A00053207C20522F577C204520207C20443037
:1001B000207C204431207C204432207C2044332089
:1001C0007C204434207C204435207C204436207C14
:1001D000204437207C202F43537C202F5253547CC3
:1001E000202D3135567C20203F207C203F20207C54
:1001F000203F20207C2046756E6374696F6E007C02
:10020000204131207C204132207C204133207C2041
:100210004134207C204135207C204136207C204107
:1002200037207C204138207C204139207C204131FE
:10023000307C204131317C204131327C20413133CE
:100240007C204131347C204131357C2041313620C5
:100250007C20413137207C204131387C20413139AC
:100260007C204132307C204C4D4736343031504C6C
:100270004745002B2D2D2D2D2B2D2D2D2D2B2D2DAF
:100280002D2D2B2D2D2D2D2B2D2D2D2D2B2D2D2DA4
:100290002D2B2D2D2D2D2B2D2D2D2D2B2D2D2D2D94
:1002A0002B2D2D2D2D2B2D2D2D2D2B2D2D2D2D2B86
:1002B0002D2D2D2D2B2D2D2D2D2B2D2D2D2D2B2D74
:1002C0002D2D2D2D2B2D2D2D2D2D2B2D2D2D2D2B64
:1002D0002D2D2D2D2B2D2D2D2D2B004C434D206DF7
:1002E0006F64756C653A2048495441434849204C35
:1002F0004D4736343031504C47452E204844363136
:1003000038333042202F204C4337393831204C438A
:100310004420636F6E74726F6C6C657220746573C9
:1003200074696E672C2070696E2320616E6420638F
:100330006F6E6E656374696F6E207461626C6500C8
:10034000000000002300260029000A42697473207F
:100350006F66206461742028313620626974292018
:100360000000000008000201000003040700000074
:10037000000000000000000000250028002B000005
:10038000000000240027002A0004040404040404DC
:100390000402020202020203030303030301020434
:1003A00008102040800102040810200102040810F7
:1003B000206800DB027302FF018E0173021E0173CD
:1003C00002AB00730200CD0711241FBECFEFD4E0B3
:1003D000DEBFCDBF11E0A0E0B1E0E6E5F0E102C094
:1003E00005900D92AA35B107D9F722E0AAE5B1E050
:1003F00001C01D92A437B207E1F711E0C4EED1E0CD
:1004000004C02197FE010E942308C33ED107C9F70B
:100410000E94A9060C9429080C940000AF92BF9288
:10042000CF92DF92EF92FF920F931F93CF93DF93C0
:100430006C017B018B01040F151FEB015E01AE18EF
:10044000BF08C017D10759F06991D601ED91FC9111
:100450000190F081E02DC6010995892B79F7C5013E
:10046000DF91CF911F910F91FF90EF90DF90CF9090
:10047000BF90AF900895FC01538D448D252F30E03F
:10048000842F90E0821B930B541710F0CF960895A1
:1004900001970895FC01918D828D981761F0A28DCE
:1004A000AE0FBF2FB11D5D968C91928D9F5F9F7394
:1004B000928F90E008958FEF9FEF0895FC01918D4A
:1004C000828D981731F0828DE80FF11D858D90E0B7
:1004D00008958FEF9FEF0895FC01918D228D892F54
:1004E00090E0805C9F4F821B91098F73992708953C
:1004F00087ED91E00E946C0221E0892B09F420E055
:10050000822F089580E090E0892B29F00E947802E4
:1005100081110C9400000895FC01A48DA80FB92F3F
:10052000B11DA35ABF4F2C91848D90E001968F731B
:100530009927848FA689B7892C93A089B1898C913A
:10054000837080648C93938D848D981306C0028889
:10055000F389E02D80818F7D80830895EF92FF9253
:100560000F931F93CF93DF93EC0181E0888F9B8DD6
:100570008C8D98131AC0E889F989808185FF15C090
:100580009FB7F894EE89FF896083E889F9898081B3
:100590008370806480839FBF81E090E0DF91CF9182
:1005A0001F910F91FF90EF900895F62E0B8D10E0A4
:1005B0000F5F1F4F0F731127E02E8C8D8E110CC013
:1005C0000FB607FCFACFE889F989808185FFF5CF5E
:1005D000CE010E948C02F1CFEB8DEC0FFD2FF11DAF
:1005E000E35AFF4FF0829FB7F8940B8FEA89FB899B
:1005F00080818062CFCFCF93DF93EC01888D8823F9
:10060000B9F0AA89BB89E889F9898C9185FD03C075
:10061000808186FD0DC00FB607FCF7CF8C9185FF5A
:10062000F2CF808185FFEDCFCE010E948C02E9CF11
:10063000DF91CF910895833081F028F4813099F0D3
:100640008230A9F008958730A9F08830C9F084304D
:10065000B1F4809180008F7D03C0809180008F77FE
:1006600080938000089584B58F7784BD089584B504
:100670008F7DFBCF8091B0008F778093B00008957D
:100680008091B0008F7DF9CF1F93CF93DF93282FF8
:1006900030E0F901EF59FC4F8491F901E356FC4F2A
:1006A000D491F901E757FC4FC491CC23A9F0162F40
:1006B00081110E941B03EC2FF0E0EE0FFF1FEB589F
:1006C000FC4FA591B4918FB7F894EC91111108C02B
:1006D000D095DE23DC938FBFDF91CF911F910895DA
:1006E000DE2BF8CF3FB7F89480915F0190916001C5
:1006F000A0916101B091620126B5A89B05C02F3F72
:1007000019F00196A11DB11D3FBFBA2FA92F982F37
:100710008827BC01CD01620F711D811D911D42E032
:10072000660F771F881F991F4A95D1F708958F92FA
:100730009F92AF92BF92CF92DF92EF92FF924B01C6
:100740005C010E9472036B017C010E9472036C19B0
:100750007D098E099F09683E734081059105A8F3C4
:1007600021E0821A9108A108B10888EEC80E83E042
:10077000D81EE11CF11C81149104A104B10429F7D5
:10078000FF90EF90DF90CF90BF90AF909F908F90B1
:100790000895FC0101900020E9F73197AF01481B53
:1007A000590BBC0187ED91E00C940E028F929F9241
:1007B000AF92BF920F931F93CF93DF93CDB7DEB766
:1007C000A1970FB6F894DEBF0FBECDBF19A242307D
:1007D00008F44AE08E010F5D1F4F842E912CB12C3E
:1007E000A12CA50194010E940108E62FB901CA01BC
:1007F000EA30F4F4E05DD801EE938D01232B242B35
:10080000252B79F790E080E0109719F0CD010E9438
:10081000C903A1960FB6F894DEBF0FBECDBFDF911E
:10082000CF911F910F91BF90AF909F908F9008959F
:10083000E95CE1CFBC0190E080E04AE00C94D60393
:100840002F923F924F925F926F927F928F929F92E0
:10085000AF92BF92CF92DF92EF92FF920F931F93CE
:10086000CF93DF93CDB7DEB764970FB6F894DEBFB2
:100870000FBECDBF9C8B8B8B61E08DE00E9444034B
:1008800060E08BE00E94440361E08CE00E9444033E
:100890003C88331C3324331C632D82E00E944403C4
:1008A000EB88FC8824E0F29EE12CFF2411246E2DBD
:1008B000617083E00E9444036B887C8838E0739EFB
:1008C000612C77241124662D617084E00E9444031A
:1008D0008B899C89892F992782958F709A83898328
:1008E000682F617085E00E944403EB89FC89EF2F3B
:1008F000FF27E695E695E695FC83EB836E2F617006
:1009000086E00E9444038B899C89892F99278695CC
:1009100086959E838D83682F617087E00E944403D3
:10092000EB89FC89EF2FFF27E695F887EF836E2F81
:10093000617088E00E9444038B899C89092F1127EC
:10094000602F617089E00E94440360E08BE00E94A8
:10095000440360E08CE00E944403EB89FC89EE0FC5
:10096000EF2FEE1FFF0BF195FA87E9876E2F61706D
:1009700082E00E9444038B899C89B6E09695879516
:10098000BA95E1F79C878B87682F617083E00E949E
:100990004403EB89FC8985E0F695E7958A95E1F7B4
:1009A000FE87ED876E2F617084E00E9444038B897F
:1009B0009C8924E0969587952A95E1F7988B8F87F7
:1009C000682F617085E00E944403EB89FC8933E065
:1009D000F695E7953A95E1F7FA8BE98B6E2F617002
:1009E00086E00E9444038B889C8896948794969412
:1009F0008794682D617087E00E944403AB88BC88AF
:100A0000B694A7946A2D617088E00E9444034B88D5
:100A1000642D617089E00E94440361E08AE00E94D5
:100A2000440361E08BE00E94440361E08CE00E949B
:100A3000440363E6C62E63E0D62E6AE070E080E0F1
:100A400090E00E949703F6018491EFE9F3E024908F
:100A5000EBE8F3E05490552071F081110E941B03E4
:100A6000E52DF0E0EE0FFF1FE05CFC4FA591B49187
:100A70008C91282211F78AE4C82E83E0D82EF60143
:100A80006491662349F087ED91E00E94AE02FFEF8A
:100A9000CF1ADF0A892B99F782E191E00E94C903FE
:100AA000832D90E00E941A04C701817099270E944B
:100AB0001A04C301817099270E941A0489819A81BE
:100AC000817099270E941A048B819C8181709927DB
:100AD0000E941A048D819E81817099270E941A04B8
:100AE0008F819885817099270E941A04C8018170AE
:100AF00099270E941A048EE491E00E94C903898517
:100B00009A85817099270E941A048B859C85817033
:100B100099270E941A048D859E85817099270E94CD
:100B20001A048F859889817099270E941A048989EF
:100B30009A89817099270E941A04C40181709927AB
:100B40000E941A04C501817099270E941A048B899A
:100B50009C89817099270E941A048EE491E00E947A
:100B6000C90385E191E00E94C9038DE391E00E94F1
:100B7000C903F12CE12C42E0C701B8010E94D60361
:100B800084E491E00E94C90340E1C701B8010E94DA
:100B9000D60388E491E00E94C903512C712C612C8A
:100BA00042E0C301B2010E94D60384E491E00E94B6
:100BB000C90340E1C301B2010E94D60380E591E080
:100BC0000E94C9036B8987ED91E00E94AE0282E129
:100BD00091E00E94C90360E08DE064960FB6F8943E
:100BE000DEBF0FBECDBFDF91CF911F910F91FF9060
:100BF000EF90DF90CF90BF90AF909F908F907F90BD
:100C00006F905F904F903F902F900C9444031F92F1
:100C10000F920FB60F9211242F933F934F935F9330
:100C20006F937F938F939F93AF93BF93EF93FF93B4
:100C300087ED91E00E948C02FF91EF91BF91AF91FF
:100C40009F918F917F916F915F914F913F912F91E4
:100C50000F900FBE0F901F9018951F920F920FB616
:100C60000F9211242F938F939F93EF93FF93E09113
:100C7000E701F091E8018081E091ED01F091EE0152
:100C800082FD1BC090818091F0018F5F8F73209156
:100C9000F101821741F0E091F001F0E0E952FE4FDE
:100CA000958F8093F001FF91EF919F918F912F91FC
:100CB0000F900FBE0F901F9018958081F4CF1F9258
:100CC0000F920FB60F9211242F933F938F939F9300
:100CD000AF93BF9380915B0190915C01A0915D0106
:100CE000B0915E0130915A0123E0230F2D3758F562
:100CF0000196A11DB11D20935A0180935B01909331
:100D00005C01A0935D01B0935E0180915F019091C1
:100D10006001A0916101B09162010196A11DB11D18
:100D200080935F0190936001A0936101B093620191
:100D3000BF91AF919F918F913F912F910F900FBED7
:100D40000F901F90189526E8230F0296A11DB11D44
:100D5000D2CF789484B5826084BD84B5816084BD2F
:100D600085B5826085BD85B5816085BD80916E0049
:100D7000816080936E00109281008091810082607A
:100D800080938100809181008160809381008091B7
:100D900080008160809380008091B10084608093A6
:100DA000B1008091B00081608093B00080917A00A2
:100DB000846080937A0080917A00826080937A00C8
:100DC00080917A00816080937A0080917A008068B7
:100DD00080937A001092C100E091E701F091E80160
:100DE00082E08083E091E301F091E4011082E091E0
:100DF000E501F091E60180E180831092EF01E0913E
:100E0000EB01F091EC0186E08083E091E901F09143
:100E1000EA01808180618083E091E901F091EA013B
:100E2000808188608083E091E901F091EA0180810E
:100E300080688083E091E901F091EA0180818F7DF3
:100E40008083C3EBD3E0FE016591749183E691E06A
:100E50000E94FA0783E691E00E94C90382E191E0D3
:100E60000E94C903229683E0C53CD80761F7E1EBF5
:100E7000F3E06591749183E691E00E94FA0783E6BE
:100E800091E00E94C90382E191E00E94C9038FEFC3
:100E90008AB984B9EAEAF3E02491E6E9F3E08491BF
:100EA000882399F090E0880F991FFC01E158FC4FCE
:100EB000A591B491FC01EB58FC4F859194918FB7AB
:100EC000F894EC91E22BEC938FBF61E08AE00E94F2
:100ED000440360ED77E080E090E00E9497038CE3AC
:100EE00090E00E94200485E791E00E94200487E2C0
:100EF00092E00E9420048FE193E00E94200487E0AA
:100F000094E00E94200480E098E00E94200480E0A9
:100F100099E00E94200480E09AE00E94200480E092
:100F20009BE00E94200480E09AE00E94200480E080
:100F30009BE00E942004C0EFD0E080E09CE00E9493
:100F400020042197D1F780E09AE00E94200480E0FD
:100F50009BE00E942004C3E6D1E006EA11E00C17F2
:100F60001D07A9F4C0E0D0E08EE39CE00E942004BD
:100F700068EE73E080E090E00E9497032097A1F371
:100F80000E947802882381F30E940000EDCF8991AE
:100F900090E09C600E942004E2CFE7EDF1E0138234
:100FA000128288EE93E0A0E0B0E084839583A6836C
:100FB000B78384E091E09183808385EC90E095870E
:100FC000848784EC90E09787868780EC90E0918B13
:100FD000808B81EC90E0938B828B82EC90E0958B00
:100FE000848B86EC90E0978B868B118E128E138EFD
:100FF000148E0895FB01DC0105900D920020E1F7AD
:101000000895A1E21A2EAA1BBB1BFD010DC0AA1F49
:10101000BB1FEE1FFF1FA217B307E407F50720F061
:10102000A21BB30BE40BF50B661F771F881F991FDC
:101030001A9469F760957095809590959B01AC0125
:10104000BD01CF010895EE0FFF1F0590F491E02D33
:061050000994F894FFCFA3
:1010560000000000AE020E023B02FB026C024A02D6
:101066005E020D0A002C20646174203D204C43442E
:1010760020676976656E20696E737472756374692C
:101086006F6E207C2064617461203D20000A4D5300
:10109600423A2000203078002C204C53423A20005F
:0A10A6002041534349493D2000005A
:00000001FF
